:020000041000EA
:1000000000B5324B212058609868022188439860DF
:10001000D860186158612E4B002199600221596106
:100020000121F02299502B49196001219960352056
:1000300000F044F80222904214D00621196600F024
:1000400034F8196E01211966002018661A6600F04E
:100050002CF8196E196E196E052000F02FF8012189
:100060000842F9D1002199601B49196000215960AB
:100070001A491B48016001219960EB211966A021F2
:10008000196600F012F800219960164914480160C1
:100090000121996001BC002800D000471248134993
:1000A000086003C880F30888084703B5996A0420EC
:1000B0000142FBD001200142F8D103BD02B5186610
:1000C0001866FFF7F2FF186E186E02BD00000240BE
:1000D000000000180000070000035F00212200005C
:1000E000F4000018222000A00001001008ED00E03C
:1000F00000000000000000000000000074B24E7A12
:1001000000200420F7010010C3010010C5010010F9
:10011000C1010010C1010010C1010010C101001097
:10012000C1010010C1010010C1010010C701001081
:10013000C1010010C1010010C9010010CB01001065
:10014000CD010010CD010010CD010010CD01001037
:10015000CD010010CD010010CD010010CD01001027
:10016000CD010010CD010010CD010010CD01001017
:10017000CD010010CD010010CD010010CD01001007
:10018000CD010010CD010010CD010010CD010010F7
:10019000CD010010CD010010CD010010CD010010E7
:1001A000CD010010CD010010CD010010CD010010D7
:1001B000CD010010CD010010CD010010CD010010C7
:1001C00000BE00BE00BE00BE00BE00BEEFF3058054
:1001D000103800BEF2EB8871B85A0010DC5A0010DB
:1001E0003402001090A31AE700201F49086006C8D7
:1001F00081F3088810471D48006800282FD10DA4FE
:100200000ECC002902D000F012F8F9E71849194A7B
:10021000002000E001C19142FCD1174988471749ED
:1002200088471749884700BEFDE701C901C29A42C5
:10023000FBD37047DC5A0010C00000205817002084
:10024000747100100000042000000420747100107C
:10025000001004200010042000000000704709482E
:1002600002F06EFC0047000008ED00E0000000D046
:10027000581700205824002085290010450300103D
:10028000AD2A00105756000006005250ABB3605321
:100290000459001006005250861C03021459001025
:1002A000060052505422A29D2859001005005250B9
:1002B000DE65F46874710010F8B5C04610B5064CE0
:1002C0002378002B07D1054B002B02D0044800E017
:1002D00000BF0123237010BD581A00200000000049
:1002E000C8560010044B10B5002B03D00349044836
:1002F00000E000BF10BDC046000000005C1A0020F6
:10030000C8560010FA22024B92001A607047C0468D
:10031000180E0020FA22014B1A607047180E0020B8
:10032000014B024A1A607047180E0020C4090000F1
:10033000FA22024B92001A607047C046180E002045
:100340007047C046F8B5DE464E4645465746E0B5CE
:1003500004F0D0FC0021364800F0C2FC354B0126E9
:1003600018009B4600F070F840229446324B324C05
:1003700063449946314D2F78380000F01BFE32005F
:10038000D023BA401B069A6200210122380000F0F7
:10039000F9FD0023236001F06BFD00293DD0FA2216
:1003A0000023920002F03CFC6060083402354C45AA
:1003B000E1D1D0231B069A461F4C204D1DE0FA22A6
:1003C0000023920002F02CFC8046434662689B1A90
:1003D000052B0ED90123FE401E402368B34208D0EE
:1003E00058466978002E15D100F0CEF943462660B4
:1003F0006360083402354C45DED053462F785E6882
:1004000001F036FD0029DAD1FA21890002F0CAFB99
:100410008046DAE700F038F8E8E7FA21890002F0D0
:10042000C1FB6060083402354C45A4D1C1E7C04629
:10043000881A0020741A0020241C0020C8560010BE
:10044000002070477047C04610B50C4C02212000B8
:1004500000F0F0FA20009222094900F0EDFA2000A5
:1004600000F0EEFA074C02E0013001F013FC20002E
:1004700000F006FC0028F7D010BDC046382400204C
:10048000D8560010881A0020F8B50500872943D9EE
:100490007831CBB2AA7A9A4222D0E97A99421FD017
:1004A000287B98421CD06C7B9C4219D0AE7B9E422C
:1004B00016D0EF7B9F4213D0002A0ED000294AD0DD
:1004C000002846D0002C4AD0002E46D00522002F0E
:1004D00004D0012300206B601DE00022AA18937253
:1004E000204C200000F0D0FB002826D11E4C02E05A
:1004F000013001F0CFFB200000F0C2FA0028F7D055
:100500002B0001212A7A0A33200000F0F3FA02209E
:1005100001F0C0FB0120F8BD4BB2002B11DB134BE7
:100520005B5C002BD5D05AB2002AB3DA0221027AE2
:100530000A4302727F221340ACE7200000F0A8FBC0
:10054000D4E7012380398B40027A134303720023DE
:10055000A0E70222C2E70122C0E70422BEE703228D
:10056000BCE7C046881A0020382400206C570010D1
:1005700070B505000C00FFF787FF0600872C33D904
:1005800023007833DBB2002B11D0AA7A9A425CD0D8
:10059000EA7A9A4256D02A7B9A4250D06A7B9A4293
:1005A0004AD0AA7B9A4244D0EA7B9A423ED0284C59
:1005B000200000F069FB002827D1264C02E0013022
:1005C00001F068FB200000F05BFA0028F7D02B0058
:1005D000012120002A7A0A3300F08CFA022001F06F
:1005E00059FBFF20304070BD63B2002B11DB1A4B6A
:1005F0001B5D002BF5D05AB2002AC6DA02212A7AF6
:100600008A432A727F221340BDE7200000F040FB9E
:10061000D3E70122803CA2402B7A0D4C934320006B
:100620002B7200F031FB0028C7D0EEE70023EB73FC
:10063000BDE70022AA73B7E700226A73B1E7002280
:100640002A73ABE70022EA72A5E70022AA729FE7AD
:10065000881A0020382400206C570010F8B557463F
:100660004E46DE464546E0B506000F00002A00D1A2
:100670007FE000239A46404B91469B463F4D89447C
:100680003C780D2C4DD033683D4A1B68210030006A
:10069000934265D1FFF7F8FE8046872C4BD978341A
:1006A000E4B2002C1DD0B37AA34201D10023B3726F
:1006B000F37AA34201D10023F372337BA34201D129
:1006C00000233373737BA34201D100237373B37B85
:1006D000A34201D10023B373F37BA34201D10023D2
:1006E000F373584600F0D0FA002803D034E001300C
:1006F00001F0D0FA280000F0C3F90028F7D0330049
:1007000001212800327A0A3300F0F4F9022001F0C6
:10071000C1FAFF2043461840002805D001239C461B
:10072000E24401374F45ABD15046F0BCBB46B24620
:10073000A946A046F8BD63B2002B13DB114B1C5D2C
:10074000002CE6D063B2002BADDA0222337A934359
:1007500033727F231C40A4E7584600F099FAC9E79A
:100760009847D9E70122803CA240337A9343337201
:10077000B7E700239A46D7E7881A002038240020DC
:10078000710500106C57001070B50500872931D92C
:100790007831CBB2002B11D0AA7A9A425DD0EA7A96
:1007A0009A4257D02A7B9A4251D06A7B9A424BD0C8
:1007B000AA7B9A4245D0EA7B9A423DD0284C200041
:1007C00000F062FA002826D1264C02E0013001F048
:1007D00061FA200000F054F90028F7D02B00012125
:1007E0002A7A0A33200000F085F9022001F052FA3B
:1007F000012070BD4BB2002B11DB1B4B5B5C002B4F
:100800001DD05AB2002AC7DA0221027A8A43027244
:100810007F221340BEE7200000F03AFAD4E701221D
:1008200080398A40037A0E4C93430372200000F013
:100830002BFA0028C8D0EEE70023EB73BEE70020B8
:10084000D7E70022AA73B6E700226A73B0E7002256
:100850002A73AAE70022EA72A4E70022AA729EE79E
:10086000881A0020382400206C57001010B5054865
:1008700000F0D0F80023044A5360044B083313609F
:1008800010BDC04638240020741A0020EC57001018
:10089000F0B5DE464E4657464546E0B599B00600EF
:1008A00093460293002A00D1ADE08E22584B5200AD
:1008B000995C00250091013199541E21FF315A5C49
:1008C000501C58549D390A430192327A002A00D0B4
:1008D0008FE07789002F00D182E010AC1F22002129
:1008E000200002F073FC092303229A4690466271AD
:1008F0005246112162721832A27205222370053B02
:100900006370E172023B414623710123E274A276D7
:10091000424661750D312373A373A17561779946C2
:1009200000992133E3731B3B2277A3746376A17094
:10093000F1790B005A1E9341DAB20792A27103912A
:10094000E1713079FBB23F0A059323740490207261
:1009500006976774019F18222775B779E57609AD68
:10096000002128002776E77702F030FC51462970F5
:1009700049460420052229714146072368701D302D
:10098000A8721038E87248466971EA7451464246C6
:10099000AB740933AB75009B2873AB70059BA873D0
:1009A0002B74069B21306972E8736A756B74079A21
:1009B000019B03990498AA71E97128722B752F760F
:1009C000337A002B1BD11922192629005B46002BF4
:1009D00007D0029BB34203D3584602F0FDFB00E070
:1009E0000026300019B0F0BCBB46B246A946A0466E
:1009F000F0BD8F2252009D5C691C995469E720224A
:100A000020262100E2E7002300250193009360E700
:100A1000881A0020054B08330360054B4360002310
:100A20008360C360036143617047C046045800108F
:100A300000FF040081717047C16042817047C04669
:100A400070B5437904000120FF2B04D1094D2B78A8
:100A5000002B01D0002070BD2100074800F01CF9D8
:100A60000028F7D02B785A1C2A70044A63719B0027
:100A70009C50F0E750240020881A0020201C002001
:100A800010B5407903F03EFE10BDC046034B800018
:100A9000C058002800D0C0687047C046201C002005
:100AA00070B5840008480D00205811001A0004ABEE
:100AB0001B88002805D00469002C02D02800A0471C
:100AC00070BD0020FCE7C046201C002070B58400EB
:100AD00007480D00205811001A0004AB1B8800289D
:100AE00004D04469002C01D02800A04770BDC04646
:100AF000201C002010B5407903F020FE10BDC04638
:100B0000F0B5DE4657464E464546E0B5037804004C
:100B100083B0002B00D1A6E080263601B2461F2606
:100B2000B14680267602050000220020B0461E0055
:100B30004036F6B2012E21D9F42B1FD85EB2002E1A
:100B40001EDB0125494E9E19564517D35219202800
:100B500006D045006B520130A35CA518002BE6D1EE
:100B600003B0F0BCBB46B246A946A046F0BD6D78C6
:100B70003B402E003F27BE43802E61D00132EBE781
:100B80001E004F46BE43C02EF1D01E000F27BE43AD
:100B9000E02E62D007261F00B743F02FEED133407E
:100BA000033EB44601936E783F2337009F43802F66
:100BB000E4D13F27019B3E409B011E43AB78019649
:100BC0001F003F26B743802FD8D13F27019E3B40CF
:100BD000B60133436646032E2AD0ED782E00BE437D
:100BE000802ECBD180263D409B012B43204D7603A8
:100BF0005D19B542C2D20425AC461C4D5D19554560
:100C0000BCD362444345A2D31E28A9DC184D194F1A
:100C1000AC466344BC469E0A450066444E53164E9D
:100C20009B05B4469B0D4D19634402306B8093E7DE
:100C3000F826124D36025D19B542DED301328BE73C
:100C40009E012B003F252B4033431E00F025803EA4
:100C5000ED00AE4292D2022574E7D13E33400C3E05
:100C6000B44601939FE700207AE7C0460028FFFFC3
:100C70000000FFFF00D8FFFF00DCFFFF00F8FFFFD0
:100C800010B502F0BBFE10BD10B502F0BFFE10BDE6
:100C900010B502F0C3FE10BDF8B504008C268D23FC
:100CA000080061698E258C4676005B00A25BE35AE2
:100CB00007689B1A6D00615D3F689BB26244B8474C
:100CC00000280BD0A35B6269C31801209BB2A35319
:100CD00093701B0AD370635D1371F8BD0020FCE7AD
:100CE000F0B5C64600B5284B88B003AA0400884674
:100CF000180011009C46C8C8C8C106680E608088EC
:100D000088802100A8CAA8C10E6088806946634611
:100D10000A002600143321CB21C21B781836137029
:100D20003000092202F058FA8C23184A5B006661F1
:100D30002000E250012680220633E6545200023B96
:100D40002D30E2520021DC3AFF3002F03FFA9023CE
:100D50000F4A5B00E2500F4A0433E2500E4A04335C
:100D6000E2500422E1212833E2540C4B4902A380D3
:100D70000B48A671FFF7E4FA404600F0C3F80120E3
:100D800008B080BCB846F0BD405800100900000112
:100D9000090400001058001018580010EF0200005D
:100DA000841A0020F0B5DE4657464E464546962347
:100DB000E0B55B00C0580C008BB000280AD00231AF
:100DC000FFF79EFEC0B20BB0F0BCBB46B246A946D0
:100DD000A046F0BD02A800F0B7F88446002829D04C
:100DE0000F22A11C9146002402AB009306AB1E000B
:100DF000124F013425CF25C601973868B3463060BD
:100E00004846009AE4B215782840185CAA46488003
:100E100018000A4DC4CDC4C05D4601980068286022
:100E20005046009A05115D5D01320D80009204313B
:100E3000A445DCD163465800C0B2C4E72C5800106A
:100E400000487047881A0020014B58697047C04617
:100E5000881A002010B500281BD0032822D0A82310
:100E6000184C5B00E35C83422AD92100483055319D
:100E700080002058FF31FFF743FEFF230340C020CE
:100E800001335B0080001843A9235B00E052E018A7
:100E900010BD9023C1200B4C5B00E2583433E2526A
:100EA0008000F1E708490C00533CFF3C2000FFF7AD
:100EB00079FF01304300C0208000184380B2E3E78F
:100EC0000020E5E7881A0020DA1B002010B5024B4D
:100ED000186800F041F910BD1C1C002010B5084C2A
:100EE0000021200004F0C0FB002800D110BD01202B
:100EF0000021404202F026FE200004F08DFBF5E7C1
:100F0000AC1C002010B504000B4800F0B3FB20001F
:100F100002F0A6FD012000F091FB084C084920607A
:100F200000F02AF92068012100F004F900220520D0
:100F3000044900F04BF910BDAC1C00201C1C002023
:100F4000DD0E0010CD0E001010B502F095FB08204C
:100F500010BDC046094A830094464022634410B540
:100F60001C68C0006240C024144080225201134318
:100F70001C60034B9C466044416010BD04C00140AE
:100F8000004001400A4B80009C4604236044002935
:100F900001D00C230821002A00D10B000268534025
:100FA0000C221A4080235B01184302607047C04640
:100FB00004C001400123D022834012069362936152
:100FC000094A83009446402263441968C0004A409D
:100FD000C02111408022520113431960034B9C46EB
:100FE000052360444360704704C001400040014055
:100FF000024B18688007C00F7047C04600C006400B
:1010000070B5EFF3108C72B60D4D2B68002BFCD031
:10101000BFF35F8F0724CB08C618C05C01230C40C8
:10102000A3401C000440034207D103433370BFF3C5
:101030005F8F2C608CF3108870BD100001F03AFDBA
:101040002C0100D0F8B54746CE46884680B5EFF370
:10105000108C72B6214D2C68002CFCD0BFF35F8F32
:101060009A422CD8D4080727055D06190124174099
:10107000BC402C421FD007210127894609E0D40833
:10108000055D06194C4639001440A1400C00294268
:1010900011D001329342F2D201204042BFF35F8F60
:1010A00000220E4B1A608CF3108800280FDBC0BCA6
:1010B000B946B046F8BD2C4310003470EEE7BFF3DC
:1010C0005F8F00232B608CF3108801204042434641
:1010D000002BECD0089801F0EDFCC0462C0100D0AC
:1010E0000021044B044ABFF35F8F02C39342FAD13D
:1010F0007047C046000100D0800100D0044A10783B
:10110000431CDBB2172B00D9102313707047C04665
:101110001C0E002000B5054B83B00100009318227F
:101120001F230348FFF78EFF03B000BD6058001077
:10113000741F002001238340002904D0034A136058
:10114000034A13607047034A1360FBE780E200E044
:1011500000E100E080E100E001238340014A1360E8
:101160007047C04600E200E0024B10309B688000F0
:10117000C058704700ED00E070B50D00EFF3108629
:1011800072B60F4A1368002BFCD0BFF35F8F0D4B74
:1011900010309B6884001B590B4A934203D09D4238
:1011A00001D001F09FFC074B9B681D51BFF35F8F7F
:1011B000BFF35F8F0022024B1A6086F3108870BD68
:1011C000240100D000ED00E0CD010010F0B557463D
:1011D0004E46DE464546E0B585B006000291170052
:1011E000EFF3108B72B6674A1368002BFCD0BFF385
:1011F0005F8F0025644B5D579A46002D00DAA4E00E
:101200006B00624C03935B199B009846A146C14456
:101210004B4652469B79103613705D4BB2009B686B
:10122000019299580B1B2F2B34D95A4B994200D05D
:10123000A4E0039B584A9C46584B6544AD00635359
:10124000434602336519E418554B0121043B1B1B2F
:101250001B055B0D13436B80524BEF71AB80FF237B
:10126000AB71029BAB604B460B431900484B019A94
:101270009B689950BFF35F8FBFF35F8F0022414B94
:101280001A608BF3108805B0F0BCBB46B246A94685
:10129000A046F0BD01200A008243D379BB422FD87B
:1012A00045464E46130040491B1B5B415943090DFF
:1012B0003A4B63533A4B02356519043B5B1B1B05E4
:1012C000354D5B0D2B4373800426B446E044444403
:1012D000131F1B1B4C46A17102991B05A1604946B7
:1012E0005B0D2B43A380314BE77101431360BDE7D6
:1012F0005800C01880002018C679BE422BD90200C1
:101300000623D356002BF3DA101D82462848804668
:1013100004267642B446E14450464E46361A30051D
:10132000400D824656461C48957106439680039AA6
:10133000944665441D4AAD00641922604246A3717B
:10134000029BA280E771A36090E701F0CBFB002530
:1013500053465D5754E7101D82469088400500159E
:1013600084464046D444664604302018301AE026AD
:101370000005400D360230438046C9E701F0B2FB5C
:1013800057E7C046240100D055240020200E00203D
:1013900000ED00E0CD01001000E0FFFF00A1FFFF25
:1013A000500E002001BDFFFFAAAA0000014880479F
:1013B00001BD0000F0B5DE4657464E464546E0B555
:1013C0000C0083B0EFF3108972B6584A1368002BF3
:1013D000FCD0BFF35F8F564B9A68030010339F0019
:1013E000D559544A9046954232D0A54243D0524EE8
:1013F000AA1B2F2A2CD801228240924651464F4ADE
:1014000012681140019151464D4A1160BFF35F8F40
:10141000EFF305829346002A33D101232A009A4331
:1014200093689C4208D177E04B005B189B00F3184F
:101430009968A1422AD01A00062151560029F3DAF0
:10144000019B002B19D052463E4B1A603B4B1A6051
:10145000374B9B68DD51BFF35F8FBFF35F8F002277
:10146000324B1A6089F3108803B0F0BCBB46B24619
:10147000A946A046F0BD1500EAE75246304B1A6077
:10148000E6E79342C9D001F02DFBC6E70621595685
:10149000002921DB4A005018800034188046A068DB
:1014A0009860E079D871062020569871002824DBD6
:1014B000A488F01A6405241544440019E0240005AA
:1014C000400D24022043988052181F4B9200B618FA
:1014D0001A781970B271B3E7594600290FD1FF315C
:1014E00091711A49918018490A789A71184A9B1B80
:1014F0005B415A43120D0A70A2E71648E3E7164A09
:101500001649D21A083A5002400D014399801449F5
:1015100052080A43DA8093E7062151561300002946
:10152000B8DA5A46002AEAD14546DCE7240100D061
:1015300000ED00E0CD010010200E002000E100E0F1
:1015400080E100E080E200E05524002001BDFFFFC3
:10155000AAAA000001BD00005A0E002000F0FFFF03
:1015600000F8FFFF70B5EFF3058101240443EFF3AA
:10157000108C72B6214A1368002BFCD0BFF35F8F2A
:101580001F4B05001F4AED1A6D416A43120D1E4D97
:101590008900AE6852B27658A6421CD00621595630
:1015A00091421CD012215956914222D01E215956E7
:1015B000914220D02A2159560324914210D0134B36
:1015C00019781A708171BFF35F8F00220B4B1A607C
:1015D0008CF3108870BDAB680D4C5C50EFE70024B5
:1015E0006100091989005B18FF21997109499980E7
:1015F000E5E70124F4E70224F2E7C046240100D025
:10160000200E0020AAAA000000ED00E055240020D2
:10161000CD01001001BDFFFF054B064A1360064ACD
:10162000136053609360D36013615361936170479B
:101630008080808000E400E004E400E000B5074B17
:1016400083B001000093002205230548FFF7FAFC50
:10165000002801DB1F23181A03B000BD7C580010BE
:1016600057240020024B9C4661448900016070476A
:101670004000003410B50400FFF740FD01002000D9
:10168000FFF7F0FFFF232371BFF35F8F10BDC0464C
:1016900010B50400FFF732FD01002000FFF7E2FF64
:1016A000FF23A380BFF35F8F10BDC04610B50400B9
:1016B0000120FFF72FFD044B9C4660448000206012
:1016C000BFF35F8F10BDC0464000003483680B48F5
:1016D00010B5844661446244090112019A185918F0
:1016E00054684B6801209C4201D802D00020C0B24F
:1016F00010BD12680B689A42F9D8F7E7FFFFFF0F99
:101700000A4B1968EFF3108072B60A68002AFCD001
:10171000BFF35F8F1B68BFF35F8F00221A6080F3F7
:10172000108840BF002000217047C04618240020C8
:10173000F8B557464E464546DE46E0B599460CABF1
:101740001C780DAB1B78060090469A460768002C63
:1017500011D1BC7B002C42D065003B682D19033DA4
:1017600059194B78BB73002B00D1FB7300238B708E
:101770004B700B7004E065003B682D19033D59194F
:10178000B2682A4B94464246E3181B0163441A6030
:101790004A465A600A9A9A600B9ADA6000238B7064
:1017A0004B700B707B7B9B46002B2BD02200594645
:1017B000B8687B6898473A68002816D05B46584658
:1017C0005B005B445519033BA870D118D35C002B18
:1017D00000D06B705B460C707B73A34513D0F0BCDC
:1017E000BB46B246A946A046F8BD5B465B005B44DB
:1017F000033BD3189C705119525D002A00D05A70D7
:101800005B460B707C7342464B46307D00F0BAFB62
:10181000051E06D05346002B03D12100306800F08E
:10182000D5FD0E9B002BDAD01D70D8E7FFFFFF0F10
:10183000F0B5DE4657464E4645460023E0B58BB030
:101840000893674B8200D45800239B46099000F010
:101850000FFB626806000F00EFF3108572B6136885
:10186000002BFCD0BFF35F8F23689C465B7B9946BF
:10187000002B00D169E0A2685A4B90464B441B01F3
:10188000984443461A685B6810001900801BB941F0
:10189000002900DC63E0099800F074FB00230022BB
:1018A000984600230692079300239A466368BFF385
:1018B0005F8F5A461A6085F310885346002B08D173
:1018C0000028C4D10BB0F0BCBB46B246A946A04626
:1018D000F0BD089B414618024B461843D04762684A
:1018E00006000F00EFF3108572B61368002BFCD0D2
:1018F000BFF35F8F002F50DB33003B4302D02369DF
:10190000002B61D12368D97B002907D04A005218E7
:1019100019688C4649466244033A51709A7B002A02
:1019200001D14A469A734A46DA734B46E168013B55
:10193000CA5C0132CA545B4623616368BFF35F8FA0
:101940005A461A6085F3108881E7002300229846E2
:10195000002306920793002300209A46A6E7002959
:1019600002D1002800D096E70021604600F0ACFCD0
:1019700043461A685B680692079343469B689A46FB
:101980004346DB689846E3684B44013B1B78089369
:101990001B0203432361002088E72369002BB1D099
:1019A000069A079B921BBB41002B15DB59460491FD
:1019B000012103914946029141460191514620007F
:1019C0000091FFF7B5FEB6E700F052FA32003B0097
:1019D00012184B41002BE9DA0122034B5242E5E792
:1019E000FC230020FFFFFF0FFFFFFF7F10B5144C0B
:1019F0006368002B04D00A211248FFF733FE10BDA4
:101A00002300114A1021206800F078FB032000F029
:101A100023FA032000F020FB03200C4900F06CFAAD
:101A2000FFF76CFB0A4B9C4603232375D0231B0650
:101A30001B6860446375074B80006060DC60DAE718
:101A4000680E002018240020CD1600103118001058
:101A500040000034FC230020F0B54E464546DE46EB
:101A60005746E0B585B0019310AB1B780600039391
:101A700000239946984600927268EFF3108B72B675
:101A80001368002BFCD0BFF35F8F3568AC7B002C54
:101A90003DD067002B683F19033FDB195A78AA73C2
:101AA000002A00D1EA73B168474A8C460098019930
:101AB000A21812016244106051600E9991600F9952
:101AC000D16042469A705A701A706B7B9A46002B0E
:101AD00067D022001900A8686B6898472A68002818
:101AE00052D0534650465B005344D719033BB8705D
:101AF000D118D35C002B00D07B7053460C706B73F5
:101B000054454FD0F3681B19013B187800E00020C2
:101B10007368BFF35F8F42461A608BF31088002C06
:101B20004FD04B46002B08D10002204305B0F0BC3B
:101B3000BB46B246A946A046F0BD039B002B3ED053
:101B40000E9B00200F999847030004000D000B43E3
:101B500035D000290ADA009A019B121BAB41009292
:101B60000193002B0ADB039B994685E700F080F97F
:101B700024184D4100940195002DF4DA0123134CF3
:101B80005B4200930194EEE753465B005344033BF2
:101B9000D3189C70D119D25D002A00D05A705346D8
:101BA0000B706C73307D009A019B00F0EBF981465D
:101BB0000028A7D02100306800F008FCA2E7002030
:101BC000B4E701204042B1E7FFFFFF0FFFFFFF7FB7
:101BD000F0B504000D0006267642F717C646361902
:101BE0006F4100B584B08F4214D811D000F040F995
:101BF00032003B00121A8B41002B15DC002B3ED02B
:101C00002000290000F068F904B080BCB846F0BD9F
:101C10008642EBD90026002700F02AF932003B006B
:101C2000121A8B41002BE9DD002302930193154B1F
:101C30003200009314483B00FFF70EFF0028DFDB63
:101C400000239846BC46114A114F7B6A9C4504D834
:101C5000B96A8E42D4D99C45D2D11168EFF3108075
:101C600072B60B68002BFCD0BFF35F8F1368BFF315
:101C70005F8F4146196080F3108820BFE5E7002A96
:101C8000BED0D1E701170010680E002018240020F4
:101C90000040054070B5060000F0EAF8FA220400A2
:101CA0000D00002330000021920001F013FA00190A
:101CB0006941002902DBFFF78BFF70BD012001495C
:101CC0004042F8E7FFFFFF7FF0B5EFF30583CE4614
:101CD000474680B505000C0085B0002B12D02C4A79
:101CE0000020536A9C4203D8926A0130AA4204D36E
:101CF00005B0C0BCB946B046F0BDE01A421E9041E6
:101D0000C0B2F5E7234E02930193234B02000093E8
:101D100030000B00FFF7A0FE031EE0DD20BF71685E
:101D2000EFF3108772B60A68002AFCD0BFF35F8F0A
:101D3000DAB294463068427B62451DD0FF221A40D9
:101D40005100894601689144884649464144033917
:101D50008978002913D0F1681B0A88464244013A69
:101D60001278DBB29A420FD07368BFF35F8F002204
:101D70001A6087F31088B2E7FF221A40EBE7326956
:101D80009342F1D13161EFE7614600F01FFBEBE7D1
:101D900000400540680E002001170010F0B5EFF379
:101DA0000582D6464F4646461000C0B51038EFF3C0
:101DB000108872B6214C2368002BFCD0BFF35F8FD4
:101DC0000123190081401E4D1F006963AA461D4D65
:101DD00029601D4D2E78AC463500C5402F402B4262
:101DE00009D1BFF35F8F276088F31088E0BCBA4643
:101DF000B146A846F0BD5346144D5F6A83005D5955
:101E0000AF420ED3124A8E439B5862461670BFF300
:101E10005F8F0022226088F31088002BE6D098475D
:101E2000E4E70C4B92009C46624413681360BFF3D6
:101E30005F8F0023236088F31088D7E7280100D044
:101E4000004005403C700540562400201C24002022
:101E50005C1E0020D03F054010B50100024A034837
:101E6000FFF7CEF810BDC04698580010542400204B
:101E7000034B596A0A00986A596A8A42FAD1704734
:101E80000040054070B504000D00124A536A190065
:101E9000966A536A8B42FAD13000190024184D41DA
:101EA000AB4211D80ED02B000A494A6A9A42FCD3A1
:101EB00007D1084A02E0516A994202D1916AA142CF
:101EC000F9D370BDA642EED9012301246442E5177F
:101ED0005B42E9E700400540064A536A9942FCD854
:101EE00007D1044B02E05A6A914202D19A6A8242B7
:101EF000F9D370470040054070B504000D00EFF3C2
:101F0000108672B61A4A1368002BFCD0BFF35F8F9D
:101F1000002D1BD02000FFF727F9164981420AD077
:101F20002000FFF729F901212000FFF703F9012321
:101F3000A340114A1360114BA400E550BFF35F8F1B
:101F400000220B4B1A6086F3108870BD0B4BA20069
:101F5000D5500122A2400A4920000B7893430B7010
:101F60000449FFF727FA00212000FFF7E3F8E5E72F
:101F7000280100D09D1D0010386005405C1E002027
:101F800056240020F0B54F46D6464646C0B5070059
:101F90002C4C616A0D00A66A616AA942FAD18B4293
:101FA00008D805D00120E0BCBA46B146A846F0BD2D
:101FB000B242F7D9EFF3108A72B6234801680029BC
:101FC000FCD0BFF35F8F0125BD4020491D4C8846E2
:101FD000097889462943C9B28C4641466046087053
:101FE000391D1B48890065630A51B9000B50216AED
:101FF0000020294219D0616A0800A66A616A8142FC
:10200000FAD18B4219D801D1B24216D8CC4516D09C
:102010000C4B1F201D625D6301230740BB400D4A2E
:102020001E38136043464A461A70BFF35F8F002282
:10203000054B1A608AF31088B5E70020F5E7012008
:10204000F3E7C04600400540280100D05624002098
:102050001C24002080E200E0EFF3108C72B60A49E5
:102060000B68002BFCD0BFF35F8F01238340074A2E
:102070000748136202789A430270BFF35F8F002310
:102080000B608CF310887047280100D00040054099
:102090005624002070B5050014001600002915D044
:1020A0000C00002A12D080686B68984729680028C5
:1020B0000ED073009B196200033B1219CB18033A30
:1020C0009C7088188A5C002A15D10670200070BDAB
:1020D00063001B197200033B9219CB18033A9E70E0
:1020E00088188A5C002A02D104703400EEE75A7026
:1020F00004703400EAE75A700670E7E730B5836091
:102100000023CCB243730133047342608373C473FE
:102110000D000068012C06D9421C0133DBB213709C
:1021200003329C42F9D1FF2129404B00591800236A
:1021300040180338437030BDF8B5CE464746060018
:102140000C0080B5002907D04D0003686D18033DD1
:102150005A195778002F04D12000C0BCB946B046A8
:10216000F8BD7900C919033988464344597889462E
:1021700000215970517073683A00210080689847B7
:102180003368002814D042469A18947059195B5D40
:10219000002B00D053700F70270049463000FFF726
:1021A000CBFF390002003000FFF774FF0400D3E7D3
:1021B000424641465D19AF709A185B5C002B00D017
:1021C0006B701470E9E7C046F0B557464546DE46E9
:1021D0004E46E0B50D006B0001685B19DF1E040080
:1021E000C85D83B00192CA19002850D043001B1863
:1021F000033BCB185E78B446002E1AD1019E002E08
:1022000042D0E67B002E04D073009B19CB18033B11
:102210005D70A37B002B00D1A573E57300282FD13F
:102220000023537003B0F0BCBB46B246A946A0469B
:10223000F0BD72006244033A89184A789046002241
:102240004A7091465A70010032002000FFF722FFC9
:1022500043468246002B07D05B0021684344033B82
:10226000CB185A78002A16D1424651462000FFF773
:1022700011FF2168019BCA19002BC2D10028CFD0C1
:1022800043001B18033BCB1800219970C8E7019B42
:10229000002BB6D1C4E750008018033809184878DD
:1022A000834648464870587041462000FFF7F2FECA
:1022B000594680462000FFF73FFF414602002000BC
:1022C000FFF7E8FE8046CFE7F0B557464546DE46C5
:1022D0004E46E0B583B00191457B04006B00006879
:1022E0005B19DF1EC15DC219002952D04B005B187B
:1022F000033BC3185E78B446002E1CD1019E002E0D
:1023000044D0E67B002E04D073009B19C318033B16
:102310005D70A37B002B00D1A573E573002931D13B
:10232000002328005370617303B0F0BCBB46B24673
:10233000A946A046F0BD72006244033A8018427874
:1023400090460022427091465A7020003200FFF7FA
:10235000A1FE43468246002B07D05B002168434420
:10236000033BCB185A78002A17D142465146200029
:10237000FFF790FE019B01002068C219002BC0D11D
:102380000029CDD04B005B18033BC3180020987088
:10239000C6E7019B002BB4D1C2E750008018033878
:1023A00009184878834648464870587041462000CE
:1023B000FFF770FE594680462000FFF7BDFE4146FC
:1023C00002002000FFF766FE8046CEE770B50400ED
:1023D00000292CD0437B8B422ED005684800401842
:1023E000033828188278002A21D053009B18033B19
:1023F000EA5CEE188A4202D11BE0002A08D05300A2
:102400009B18033BEB185A788A42F6D142785A70EF
:1024100000230122837043702000FFF7D5FE617B0B
:1024200002002000FFF736FE6073012000E000206C
:1024300070BD43783370EBE701221900FFF7C4FE4B
:1024400060730120F4E7C046F8B5CE464746040065
:1024500080B506200E0000F023FA051E51D0524B25
:102460005249E21853425A418023DB039C469205AD
:102470004F4B62441A604F4B1A6010008B689843B0
:10248000FBD1494B8021E3185A4253414A4A5B0031
:1024900049009952062000F003FA3100C00000F014
:1024A00081FBC30932D14022012190466162A362BF
:1024B000256BEB0736D427008026E36A00232C37F0
:1024C00076013E4333600620256300F0E9F941467A
:1024D000800000F067FB236B05009846DB073BD4C8
:1024E0006022E36A5A406E231340336043462363FD
:1024F000802310229B013B431A60304B236303234C
:10250000A3642800C0BCB946B046F8BD2C4A93422B
:102510003FD900232B492C4A6162A362256B904668
:10252000EB07C8D52200C02330329B011343234A56
:1025300006201A60666AA26AB601B61800F0B0F901
:10254000224900F02FFBB6020100300000F02AFB08
:102550000021FFF797FCAEE72200C02330329B0139
:102560001343164A06201A60636AA26A9B019946C1
:10257000914400F095F94B4614499B02994600F0AE
:1025800011FB0100484600F00DFB0021FFF77AFC2B
:10259000A6E77F22990188461040013040081900C3
:1025A0008044030082E7C0460080FCBF00C00040BA
:1025B00000E0004000F000402C2400200103000057
:1025C000FEFF0000FFFF0000C0FF3F004E0E0000B6
:1025D00030B50C2083B000F0B9F9FEF709FD0028F2
:1025E0000ED0994B994A1A605A609A60DA601A6163
:1025F0005A619A61DA611A62954A5A6203B030BD33
:10260000944CA06700F0AAF90122934B1A60636C06
:10261000012BFCD10322914B1A608E4A936B012B44
:10262000FCD1013301218E4A8E480093043300F01F
:102630003DF905238C4A009301218C4800F036F9BE
:102640008B4B5A68FF2A02D8802252005A6080229F
:102650007D4C824B21691201854D1A60002907D0FB
:10266000606900F09FFA431C5800C0180338FDD27F
:10267000E0217F4B02201A681140802252012A4338
:1026800011601968484003210140116004219A68D3
:102690001142FCD08022802192012A43090111605D
:1026A000802252005A60734B2361734B5968FF2993
:1026B00000D85A600321684A6F4B116002399A684A
:1026C0001142FCD0E0201A681040802252011A43C7
:1026D00010601868484003210140022011606649DB
:1026E0008A681042FCD0802292011343802212019A
:1026F0001A608022614B52004A606361604B5968E6
:10270000FF2900D85A6080225E4BE16912015C4DBE
:102710001A60002907D0606900F044FA431C580091
:10272000C0180338FDD2E02255490B681A408023B7
:102730005B012B431A60802380229B012B431201F3
:102740001A608022414B52004A60E3614E4B596847
:10275000FF2900D85A6080224C4B216A12014A4D51
:102760001A60002907D0606900F01CFA431C580069
:10277000C0180338FDD2E02243490B681A40802379
:102780005B012B431A60802380229B012B431201A3
:102790001A60802380225B004B602C4BD2022362A4
:1027A0003B4B5968914200D25A608022394B616A92
:1027B0001201374D1A60002907D0606900F0F2F964
:1027C000431C5800C0180338FDD2E02230490B6882
:1027D0001A4080235B012B431A60802380229B01D7
:1027E0002B4312011A608023DB024B60184B63629B
:1027F000294B5A68FF2A02D8802252005A60802250
:10280000264BA1691201244D1A60002907D0606986
:1028100000F0C8F9431C5800C0180338FDD2E0226C
:102820001D490B681A4080235B012B431A608023EB
:1028300080229B012B4312011A6080235B004B60B6
:102840000E4BA361DAE6C046781F0020006CDC0264
:102850001BB70000008000403CB0004030B000409A
:10286000002F685900800240008C864700C002405B
:1028700030800040001BB7003C8000404059730787
:102880005480004054B000406080004060B0004080
:102890006C8000406CB000404880004048B0004070
:1028A000014B8000C0587047781F0020F8B5040025
:1028B00021481D0017000E0000F074F901003800D7
:1028C00000F070F9069B29041B0319432368002BB1
:1028D00020DB1A4B1A4DE21853425A4180235B0108
:1028E0009C461203174B62441A60174B1A6017007C
:1028F000AB689F43FBD1C022231D92011A432123C1
:102900002660A06013602368002BFCDA0823E160D6
:102910001360F8BD3F2322681340B342D9D1A368A6
:102920001B051B0D8342D4D1EE22E368D202134073
:102930008B42CED1EDE7C046001BB7000040FDBF83
:1029400000C0004000E0004000F000408023024A48
:102950009B000343D362704700800540AA23064AC8
:102960001B0113602F230549D360054B1960536881
:10297000002BFCDA7047C0460040024000B0FA006D
:10298000006002402C4B2D4A70B51A602C4A2D4B2A
:102990002D491A6014008B689C43FBD12B4D2C4EA3
:1029A000B54208D2013E761BB60808CD98472300F1
:1029B0000134B342F9D1FFF70BFE264A214B1A60CE
:1029C000214A9368DB43DB01DD09002BF9D140226A
:1029D000214B224C224E9A675A671A67DA66B44234
:1029E00008D223682000002B20D00834FEF750FEC8
:1029F000B442F6D31B4E1C4CC022A168300000F03C
:102A0000EBFBA660FEF76CFBFEF706FEFEF7EEFFA3
:102A1000164C174EB44208D2013E361BB60808CCFD
:102A200098472B0001359E42F9D170BD0834FEF75E
:102A300021FEB442D5D3DDE700E00040BFCDFBFE70
:102A4000FE7F3C0000F0004000C00040381700202E
:102A500048170020FFFFFF0100F001403017002061
:102A6000381700200000002000ED00E0481700208B
:102A70005817002000BEFDE7094A0300106800282F
:102A800005D00849C3188B4207D813607047064821
:102A90000449C31810608B42F7D901204042F5E782
:102AA000F01F0020000004205824002010B5FFF77C
:102AB000E1FFC0460FB400B5084883B000F0BEFC8B
:102AC000049B002B07D005A91800019100F018F80D
:102AD000034800F0B3FC0120FFF7CCFFBC58001006
:102AE000CC58001010B50148FFF7E4FFD058001093
:102AF00010B5002800D110BD00F054FCFBE7C04623
:102B000010B5094A0300146884B0002C08D00122D3
:102B100000910648524203A9A047012004B010BD0D
:102B200000F08CFC0020F9E7F4230020F12A0010CB
:102B300001480421014B1847900E0020612B001022
:102B4000142310B50100188804331B88984710BD62
:102B5000162310B50100188802331B88984710BD52
:102B6000F8B54746CE4680B50F1E19D014239946B6
:102B7000043304000025012698464B461888434636
:102B800021681B88984701C4431E98410135404283
:102B90000640AF42F1D13000C0BCB946B046F8BDE6
:102BA0000126F8E7114A936F9B0813D2106651660D
:102BB000002905D0FFE7FFE7FFE7516F106F70476F
:102BC00004B5002801D00020C04302F045FD0021DB
:102BD00004BDC046F0B5146E556E576F166FFFF703
:102BE000E5FF1466556657671667F0BD000000D014
:102BF00094464A4A926F9208624601D228E0C04643
:102C0000F0B5464E346E756E776F366F00F020F873
:102C10009446424A14665566576716676246F0BD89
:102C200094463E4A926F9208624601D254E0C046F2
:102C3000F0B53A4E346E756E776F366F00F04CF823
:102C40009446364A14665566576716676246F0BD65
:102C5000002B24DB11D000293EDA00B5C9434042E5
:102C600000D1013100F038F8C943404200D10131B0
:102C7000DB43524200D1013300BD002AEBD10028D2
:102C800001D1002905D00020C90FC90701D1C043D7
:102C9000410800B502F0C8FC0022002300BD00B5C9
:102CA00000290ADBDB43524200D1013300F014F863
:102CB000C943404200D1013100BDC943404200D167
:102CC0000131DB43524200D1013300F005F8DB4310
:102CD000524200D1013300BD002923D1002B18D16D
:102CE000002A0CD0BC460D4F38667A6600210023BE
:102CF000FFE7FFE7FFE77A6F386F67467047002806
:102D000001D00748010000B502F08EFC002200232C
:102D100000BD02000B00002000217047000000D021
:102D2000FFFFFFFF002B00D0BFE0130C28D1002ACB
:102D3000E7D080B4114F39667A66FFE7FFE730B419
:102D4000040C7B6F396F1B0423433B667A66FFE7F5
:102D5000FFE7FFE7C04684B27B6F3D6F1B04234350
:102D60003B667A66FFE7FFE7C04600232C042D0C84
:102D70007A6F386F00196941B0BC7047000000D00D
:102D8000F0B594460025140E01D112020835140F37
:102D900001D112010435940F01D192000235D40FF4
:102DA00001D152000135D40B0134254F7C66254CEE
:102DB0003C660E0C93B2FFE7FFE7FFE73C6F66430C
:102DC000360C7703BE467343DF0B5B04C01AB94170
:102DD000130C7343DB18C91ACE086643360CB6448D
:102DE00093B273431F0F1B01C01AB941130C7343F5
:102DF0001F0B1B05C01AB941860D8F023E43664367
:102E0000360C092D24DB520A7243801A7703460AD6
:102E10006643360C16235B1BDE40DF40BF19644659
:102E20006643821B7046043506330100D940A84032
:102E3000C01900D30131A24206D20023F0BD000028
:102E4000000000D0FFFFFFFF121B0130F3D3F1E7BA
:102E500009277F1BFE406446A2B27243801A00D24B
:102E60000139220C7243130C1204821A99410B008F
:102E70007046043513370100F940A840801900D38B
:102E80000131002B02D1A2420AD2F0BD013000D3A1
:102E90000131121BFAD2013BF8D1A24200D2F0BD9F
:102EA000013000D30131121BF7E7F0B51C0C00D044
:102EB00080E00CB400251C0A04D11B02160E33431B
:102EC000120208351C0B04D11B01160F33431201EB
:102ED00004359C0B04D19B00960F334392000235BE
:102EE000DC0B02D192185B4101351C00971864413C
:102EF0000134464F7C66464C3C660E0CFFE7FFE70C
:102F0000FFE7C0463C6F6643360C7703BE4697B278
:102F10007743C01B00D20139C01B00D201399FB2D8
:102F20007743C91BC91B170C77437E04FF0B801B1B
:102F3000B941CE086643360C0C2D33DBB644120B78
:102F40001F053A431B0B97B27743C01B00D20139D0
:102F50009FB27743C91B170C77433E043F0C801B7D
:102F6000B941860D8F023E43664329277F1BFE40F1
:102F70000C3D7746AF40BF1930BCA2B2ABB2724332
:102F80007343801A9941220C7243130C1204801A65
:102F9000994102000B000137001BA941F9D2781EAC
:102FA0000021F0BD0C277F1BFE4077467F0BAF4012
:102FB000FF19E0E700245D1C07D0144F7D663966D9
:102FC000FFE7FFE7FFE7FFE73C6F95B29EB265437F
:102FD0006643401BB141150C1E0C65436643360425
:102FE0002F0C3E432D04401BB141994204D20200F4
:102FF0000B0020000021F0BD01D19042F7D3801AD0
:10300000994101349942F2D3F6E70000000000D064
:10301000FFFFFFFF132370B51D78012D15D010DDC4
:103020001C48FFF795FD1C4C01008022200000F099
:10303000D3F8022D06D01948FFF782FD184B18600F
:1030400070BD154C174BA364F5E7164B124C23606B
:103050006360A360E36023616361A361E361236252
:103060006362A362E36223636363A363E363236432
:103070006364A364E36423656365A365E365236612
:103080006366A366E36623676367A367E367A36476
:10309000D1E7C04653440000581800204C330000CC
:1030A00014240020A930001007B5604601880A0AE0
:1030B0000230DF2AFAD1C9B2820804D302884088DC
:1030C0000004104300E00068014A5050039007BD1F
:1030D0005818002051434343C9188C46110C83B241
:1030E0004B4310B4040C614392B280B2504362432C
:1030F0001C041B0C001910BC59411304120CC018FD
:103100005141614470470000132310B512481C78E8
:10311000FFF71EFD0100012C0AD003DD80220F48BD
:1031200000F05AF80E48FFF70BFD0E4B186010BD6B
:103130000A4C5422200000F04FF80B4B6365A36546
:10314000E36523666366A366E36623676367A36735
:10315000E3672362E361E5E7534600005819002066
:103160004C330000142400206D31001007B5604678
:1031700001880A0A0230DF2AFAD1C9B2820804D3D0
:10318000028840880004104300E00068014A505063
:10319000039007BD5819002010B5040001F0DCFDB4
:1031A000002804D0034B04199C4200D810BD0248EB
:1031B000FFF780FC00000420DC58001001480421C7
:1031C000014B1847A00E0020612B0010014B1B681B
:1031D00018470000A00E0020014B5B681847000054
:1031E000A00E0020030010B5080011001B689847CE
:1031F00010BDC046F0B546464F46D646C0B5437DE5
:1032000080460E001700002B46D0002A3FDD4B1EE3
:103210009946244B0125002400209A460DE04B4698
:103220001B5D0D3B5A425341325DDBB20A2A0BD083
:103230002B00013401359F421ADD002CEFD14346AB
:10324000325D1B7D0A2AF3D1002BF1D1A04204DAB2
:103250004346211A1B6830189847434650461B685E
:1032600002219847013428002B0001359F42E4DCFD
:10327000874204DD4346391A1B6830189847F6190F
:10328000013E33780D3B5A42534142461375E0BC30
:10329000BA46B146A846F0BD036811003000984711
:1032A000F5E7C04658590010F0B5DE4657464E4681
:1032B0004546E0B585B017001C0006000D00FEF77E
:1032C000D7FD0023304A12184B41002B58DB2F4901
:1032D00008008A4602F0D8F901906B1C03D1300037
:1032E00002F028F80500002C25D1294B9846294BDF
:1032F0001C68002C15D0002F20D1274F02E0246934
:10330000002C0ED02368002BF9D03B68002B01D095
:10331000A342F4D120002A003100C0472469002CC8
:10332000F0D1019B002B27D105B0F0BCBB46B246C3
:10333000A946A046F0BD194B9846D8E7164B9946CA
:1033400002ABDF1D0A239B4602E02469002CE8D073
:103350002368002BF9D04B461B68002B01D0A342F9
:10336000F3D12A0031002000C0475B46012239001A
:1033700020003B70C047E8E7504602F04DF9D3E724
:103380000122074B5242A2E740420F0030170020B3
:10339000F5310010E01F0020EC1F0020E531001087
:1033A000FFFFFF7FF0B5CE46474680B583B06B4642
:1033B0000600DD1D2870FEF75BFD00231A4A121877
:1033C0004B41002B2BDB19490800884602F05CF9C1
:1033D000174B81461C68002C14D0164F02E024695C
:1033E000002C0FD02368002BF9D03B68002B01D0B4
:1033F000A342F4D1200001222900FFF7FBFE24693B
:10340000002CEFD14B46002B05D1300003B0C0BCDF
:10341000B946B046F0BD404602F0FEF8F5E701229D
:10342000054B5242CFE7C04640420F003017002004
:10343000E01F0020EC1F0020FFFFFF7F70B504009D
:1034400001F078FF00230100050001222000FFF7B2
:103450002BFF084B1C68002C06D06368002B05D09E
:1034600098472469002CF8D1280070BD2469002CED
:10347000F3D1F9E7E01F00200A4A1368002B05D1B9
:103480000CE01A001B691032002B07D09842F8D1CB
:10349000002902D103691360016170470029FCD043
:1034A0001060FAE7E01F0020F0B50D1E15DD0E4B91
:1034B0000D271A680D4B4519D31859424B410C4939
:1034C0005B005E5E20210478A64207D09369194212
:1034D000FCD101301460A842F5D1F0BD93691942C6
:1034E000FCD11760F2E7C046342400200080FCBF06
:1034F0002C24002030B504000D1E26DD00201021F4
:103500001B4B013C1A689369194219D10130936928
:103510001942FCD1136823548542F4D1154B1B6822
:10352000002B0CD050239363516B183B34320B406B
:103530001100802252010A431360002815D030BDCB
:103540000C4B1B68002BEDD1F7E70A4B1B68002BD7
:103550000BD050223821064B1B689A635A6B3433C8
:103560001140802252011343196003204042E6E7D4
:10357000342400206C1F0020064B10B51B68002B64
:1035800006D00021044A12689163044A10689847E3
:1035900010BDC0466C1F002034240020701F002086
:1035A0001D4BF0B51A68C64698461C4B0E00D31842
:1035B00059424B411A4F14331C00050000B53B68BB
:1035C000002807D0002B11D0164B3D601E6080BC38
:1035D000B846F0BD002BF7D0906300212000FDF726
:1035E000A9FD20001049FDF7E5FEEDE720000E499A
:1035F000FDF7C2FD01212000FDF79CFD434650224E
:1036000038211B689A635A6B34331140802252016F
:1036100013431960D8E7C046342400200080FCBF63
:103620006C1F0020701F00207935001070B50C4E03
:103630000D001C003060002A03DB02211000FDF7A2
:1036400089FC002C03DB02212000FDF783FC29000C
:103650003068FEF7F9FE01210248FFF70DFF70BD4B
:1036600034240020B00E002010B5024800F00CF801
:1036700010BDC0460C24002010B508220149FFF7F8
:10368000ABFD10BD0C24002030B5002589B004002E
:103690000922002101A80095FFF798FD09220021C9
:1036A00005A80495FFF792FD4B236A466846137000
:1036B00004A90D2201F0A8FF152108222000694469
:1036C000FFF78AFD09B030BD10B501210520FDF7D7
:1036D00031FD10BD10B500220021024800F066F94E
:1036E00010BDC0461420002080219022034B890287
:1036F000995080225201DA647047C0460020115070
:103700008022024B5202DA647047C04600201150FA
:10371000F0B5C64600B5060000F022F90C231B4D9B
:10372000FF22AB6705201A49FDF750FD402398465C
:10373000184C402200212000FFF748FD4346012796
:10374000238321210023144A6770A260136063540D
:103750005F31618441462187053963540F4A10491E
:103760006360E260A1620B606362E26201F06CFF81
:1037700080239B052F64EB6490230A4A3000EA50B3
:10378000FFF7BEFF80BCB846F0BDC0460000115038
:10379000F9040020F41F0020840010500001105094
:1037A0008000105010D001000B785B0602D14B78DE
:1037B000052B00D070478A78014B1A60FAE7C046A3
:1037C00000001150F0B5C64600B54B790C791B02CC
:1037D00088782343CC787F21A4070140C509A20F34
:1037E0004F001400324E7A195201B2189070012025
:1037F0006840507000205B055B0DD0701383D47659
:103800008046CA00012D33D02A488446880162448C
:103810008446B4446046826040461060002933D03C
:10382000254AC90090466246414451603F223F33D9
:103830009343022C00D15B0020487A1901685201A1
:10384000B218D1601E4ACB18036051405340802209
:1038500088465201934228D84346A4061C4380233D
:103860007F197F011B06F6191C4373681C6011E069
:1038700014488446880162448446B44460468262A7
:1038800040461060002909D100236D01761973604C
:103890000D4BF360012080BCB846F0BD084AC9005A
:1038A0009046624641445162C0E7FFF71BF9D3E7F7
:1038B000F41F00208400105004001050F823002052
:1038C00000001050800010500001105010B501F0A1
:1038D000BBFE10BD10B57F200C0020404000E40965
:1038E000110000191A00034B4001C01800F05EF8E7
:1038F000012010BDF41F00207F22130010B50B40E3
:103900000A420BD0C90980225800401806494001DC
:1039100040181201002101F0CFFE10BD0222034821
:10392000C909521A8266EEE7F41F002000201150E8
:103930007F22100010B508400A4200D110BD0023BC
:10394000C9094000401804494001081800220349F1
:10395000C37001F0B1FEF1E7F41F0020FFF7FFFF95
:1039600080220D4B520410B51A600C4B0C491A60A2
:1039700010008B689843FBD10A4C9C220021200048
:10398000FFF724FC8022002152010748FFF71EFCAC
:103990000923636710BDC04600E0004000F000400E
:1039A00000C00040000011500000105070B5837E30
:1039B00004000D001600002B17D10023E382013311
:1039C0002000A682A376256101F036FE002804D0EF
:1039D00080219023084A8902D150200001F00CFE7A
:1039E000002805D00123237770BD01F05DFEE4E7D8
:1039F000200001F051FEF7E700201150024B5878EB
:103A0000431E9841C0B27047401D0020024B1878F9
:103A10004007C00F7047C046401D0020094A10B53E
:103A200013785B07DC0F002B05DA1823127813409C
:103A3000182B02D00024200010BD034B1878FFF78C
:103A400053FEF8E7401D0020EC0E0020034B1878D1
:103A5000FF38431E9841C0B27047C046EC0E0020AC
:103A6000F8B5CE46474680B52C4E05003378012088
:103A7000FF2B03D0C0BCB946B046F8BD532200218D
:103A80002748FFF7A3FB274C2000FDF7F3FD264B4B
:103A90001C60264C20001430FDF708FE200001F0C9
:103AA00009F9234B234F1C60234B9846002B04D06D
:103AB000380000E000BF214B1860424600243B78EC
:103AC000002A23D01E4A90461C4A9146A34212D88F
:103AD0000FD14346984701343B78E4B2A342F5D274
:103AE00028003570FFF714FE2800FFF7EDFD0120D8
:103AF000C0E70020BEE74A461268630094461B19DF
:103B0000DB006344002BF4D01B68E3E700F05CFEAD
:103B10003B780020002BADD1E2E7C046EC0E002040
:103B2000401D0020F81C0020941D0020D00E002015
:103B3000981D00205124002000000000B41C00202B
:103B4000C9470010F0B5DE4657464E464546E0B53B
:103B50008BB000F099FF002800D10EE1C84BC94F8F
:103B60009A46C94D07AC3E687269EFF3108172B690
:103B70001368002BFCD0BFF35F8FB16130002100D0
:103B800001F004F87269B369BFF35F8F002111601F
:103B900083F31088002800D1EFE06378082BE2D887
:103BA00052469B00D3589F466368002BDBD0A06829
:103BB0009847D8E77F222179B34E0A405000361843
:103BC000B046CB099844404601263030C378B34311
:103BD000C370C3780336B343C370002A00D1F1E049
:103BE0004346AA4ADB7C002A06D0A94A12789342AF
:103BF00000D261E19B1ADBB2002B00D0BDE0A54EE4
:103C000062792078A368B047ADE701222B780121C3
:103C100013432B7033230420EA5C8A43EA54EA5CA2
:103C20008243EA540133EA5C8A43EA54EA5C824301
:103C3000EA54237800209B4600F0D2FC60222379CE
:103C40001A40602A0DD0402A00D1C1E0DB06DB0E0D
:103C5000012B00D13BE1022B00D1D6E0002B00D19B
:103C6000C5E020780021FFF747FE80212078FFF78C
:103C700043FE78E7844E3378DB0700D473E7864B46
:103C8000002B00D16FE7FCF753FB6CE77E4E3378D7
:103C9000DB0700D467E7814B002B00D163E7307866
:103CA0000007C00FFCF73CFB5DE72378774A984696
:103CB000774B002699461B78002A00D17AE0784A93
:103CC0009346B34260D819D1764B404698474B464D
:103CD00001361B78F6B2B342F3D26B4E5322002169
:103CE0003000FFF773FA1022FF21F01CFFF76EFA85
:103CF00030002022FF211330FFF768FA00F066FC45
:103D0000694B002B00D12EE7FCF704FB2BE723784F
:103D10005E4A98465E4B002699461B78002A1FD0C3
:103D20005F4A93469E423AD321D15E4B4046984724
:103D30004B4601361B78F6B2B342F3D2524E5322B1
:103D400000213000FFF742FA1022FF21F01CFFF79C
:103D50003DFA30002022FF211330FFF737FA07E049
:103D6000404600F03BFD4B461B78002BE6D0464E0C
:103D700000F02CFC2379B370F5E60BB0F0BCBB4629
:103D8000B246A946A046F0BD5A4612687300944652
:103D90009B19DB006344002BB0D05B6895E75A4663
:103DA0001268730094469B19DB006344002BDED03D
:103DB0005B68BBE7404600F011FD4B461B78002BCB
:103DC0009CD18AE762792078A36800F01DFCCAE6DE
:103DD0003648002800D144E700F002FC0121584693
:103DE00008AA00E000BF002800D0BCE639E7202A7E
:103DF00000D1A1E0002A00D033E76379092B00D974
:103E00002FE72B4A9B00D3589F467023217A0B4201
:103E100000D026E70F330B405B00E818CE09009373
:103E20001A4B8019C07C002B06D0194B1B78984286
:103E300000D2A4E0C01AC0B2002800D099E0002A45
:103E400000D057E11B4B984663791A00994602232C
:103E50009A43012A00D151E14B46002B00D000E7E4
:103E6000009B06AAEB189E193036F37802329B07A6
:103E7000DB0F13805846022308A900F049FB72E6C5
:103E8000C4590010981D0020401D002000000000B3
:103E900051240020254A0010310300102103001096
:103EA000B41C0020DD4700101503001000000000C6
:103EB000E8590010505A00105A00D318BB4ADB00D2
:103EC0001268D318002B00D157E71E6998E6237AB1
:103ED0000F2B00D9C5E6B64AEB18DB78002A05D0CF
:103EE000B44A1278934263D39B1ADBB2002B00D002
:103EF000B7E6B148B14E00F073FB01215846F368B4
:103F000008AA9847002800D02DE6602216002379E1
:103F10001E401A4200D0A4E663790A3B012B00D967
:103F20009FE600F05DFB63790A2B00D135E158462E
:103F300008A900F0D5FA16E6237A0F2B00D990E6EF
:103F40009B4AEB18DB78002A06D09A4A12789342F3
:103F500000D2F6E09B1ADBB2002B00D081E6964837
:103F6000964E00F03DFB01215846F36808AA984799
:103F700039E7002A00D074E60023984664E743003E
:103F800098468A4B40441B68C00098468044002AEB
:103F900000D159E74346002B00D162E6D86800F013
:103FA0001FFB434601215846DB6808AA98471AE7D9
:103FB0007E4A5E00F3181668DB00F618002E00D16A
:103FC0004FE6F06897E7A37900931A006B789A425E
:103FD00007D06B78002B00D056E1009B002B00D05F
:103FE000F8E0009B584608A96B7000F079FABAE532
:103FF0006B7806AA023213705846012308A900F014
:1040000087FAB0E5E088030AC0B20F2B00D928E692
:104010006B499A008A58974608A800F0E7FA584674
:10402000A179FFF757FB02222B7813432B709AE5F7
:10403000E388012B00D014E608222B7858469343DE
:1040400008A92B7000F04CFA8DE50220297806AB08
:104050009A1C8B068908DB0F01400B4309E7E388B4
:10406000012B00D0FDE508222B785846134308A900
:104070002B7000F035FA76E5524B002B00D1F0E5BD
:1040800000E000BF021E00D1EBE5D37891781B025F
:104090000B43584608A900F03BFAA4E64A4B002B14
:1040A00000D1DEE500E000BF021E00D1D9E5584690
:1040B000137808A900F02CFA95E62189FCF7CAFECE
:1040C000021EF4D1CDE5022B00D11BE13F4B002BAA
:1040D00000D1C6E500E000BF0200002A00D1C0E523
:1040E000D3E7FCF7ADFE1223020008A9584600F002
:1040F0000FFA78E6314B3048984650E7E288002ABC
:1041000009D14B46012B27D0009BEB189E19303666
:10411000F3789B0734D54346002B00D123E5D868BC
:1041200000F05EFA43460121DB6808AA584698472A
:10413000002000F055FA3423EB5CDB0700D512E5D4
:10414000F5E61A4A5E00F3181668DB00F618002E32
:1041500000D186E5F06804E7009BEB189E19303625
:10416000F3789B07D7D51A4B1878FFF7E1FB0222AB
:10417000F37893434A46F370F3789343F370CAE7B6
:10418000134B1878FFF7B8FB0222F3781343012290
:10419000F370F3781343F370BDE706AB9A1C5846EF
:1041A000012308A9167000F0B3F9DCE4B41C002068
:1041B00000000000512400207D480010505A0010DB
:1041C000105A001000000000000000000000000075
:1041D000EC0E0020581EC0B2FCF736FE002800D1BD
:1041E0003FE54378022B00D03BE50121C2799311D2
:1041F00052110B400A4012015B0113432A782F3100
:104200008A4313432B700923994681444E46C37851
:1042100082781B021343C3180293029BB34200D857
:10422000ADE00122737803920B2B03D1F378039353
:104230003378F6187378042B00D012E50021029B26
:10424000554A9B1B9BB20193544B884604931B78A1
:104250008A4268D032000E0090469E4256D300D06B
:10426000FFE44F4B019A414658469146984708282B
:1042700003D94B46834200D388E0049B01361B7868
:10428000F6B2B342E9D2ECE45846FFF71FFBAB7835
:10429000414A0193414B002699461B78002A0ED0D3
:1042A000404A90469E4223D31FD13F4B58469847E1
:1042B0004B4601361B78F6B2B342F3D206E05846BD
:1042C00000F08CFA4B461B78002B0ED153220021B4
:1042D0002800FEF77BFF1022FF21E81CFEF776FF87
:1042E0002022FF213148FEF771FF019BAB7074E67D
:1042F000424618231268734394466344002BF4D05B
:104300005B68D3E7FCF7A0FD0200E6E6254B1B68DF
:1043100005931823059A734394466344002B00D1F8
:104320009FE49B689EE731005846019A00F060FACE
:104330008146082800D894E4019B834200D290E48F
:10434000002240460AE0B378D318DBB2EB18D978E4
:10435000FF2900D085E40132D870D2B2039B9A4283
:10436000F1D18046030031004A46104800F0F4FBCA
:10437000049B4E441B78434500D34EE771E40C4B3D
:10438000002B00D12DE6FBF7BDFF2AE64346814610
:10439000B0461E00D4E7C0460000000051240020B3
:1043A000F1470010B41C0020DD470010531D002011
:1043B00005030010F8B557464E46DE4645460C004C
:1043C000E0B516001F00002A3CD0702398461E4B13
:1043D00000259B461D4B9A461AE05B461B78200041
:1043E00099465346997800F07BFB00281CD02100A9
:1043F0004846FFF7E7F9002816D0A378DA09012A22
:1044000019D00A9A013513702378E418B54219DAE5
:104410006378052B08D1E3789B079B0FBB4203D140
:104420004246A3781A42D8D00020F0BCBB46B24620
:10443000A946A046F8BD0B9A013513702378E418FD
:10444000B542E5DB0120F0E7EC0E0020401D002026
:10445000074B080019687F2310B50340C0095B00B3
:1044600033301818034B181800F012FB10BDC0466B
:10447000941D0020401D00207F2070B508400F4C87
:104480004000CD09241864193034E5780020ED0788
:1044900000D570BD0126E578094835430078E57000
:1044A000FFF718FA0028F4D10122E3789343E37070
:1044B000E37803329343E370EBE7C046401D0020EE
:1044C000EC0E00207F22CB090A40044952008918D3
:1044D000C9183031C878C007C00F7047401D002090
:1044E00070B50A4E0500300008220C00FEF774FE7D
:1044F00000237F21F3602278B36091425B41280062
:10450000D90100220023FFF7B7FF70BDB81C0020BF
:10451000F8B5CE46474691462A4E80B50822070098
:1045200030000D009846FEF757FE4B46B36000235F
:10453000F381EC79A97924020C43231C444500D96A
:1045400043469AB29046B381002C13D0002A1FD064
:104550004B46002B34D0131C402A1FD89BB29846E0
:1045600033787F2B20D80021174A43463800FFF7C5
:1045700083FF09E07F222B7838009A4264410023B0
:104580000022E101FFF778FFC0BCB946B046F8BD94
:1045900033787F2B11D980210022E6E740239BB29C
:1045A000984633787F2BDED9074C42464946200097
:1045B000FEF712FE80212200D7E700210022D4E777
:1045C0000020E1E7B81C0020001D002010B51422D7
:1045D00000210248FEF7FAFD10BDC046B81C0020BD
:1045E000014B18617047C046B81C002010B5054C3F
:1045F000010008222000FEF7EFFD0023A360E36026
:1046000010BDC046B81C0020F8B53B4C1D002378F7
:104610000600DA09C9098A4213D00020002D00D013
:10462000F8BD364B002B03D021003000FFF7BCF85B
:104630002369002B44D02200032130009847012039
:10464000EEE77F2B06D8A068002837D02A002C4937
:10465000FEF7C2FDA368E28959195219E38892B2A4
:10466000E281A160934214D03F2D12D9A589A81AE6
:10467000071C80B240282FD82378BFB27F2B2DD8BB
:104680000021AA4235D01E4A3B003000FFF7F4FE5D
:10469000C6E72369002B05D022000221300098478D
:1046A00000280FD07F220021237830009A42494110
:1046B00000230022C901FFF7DFFEB1E70020AFE7CA
:1046C0000120ADE700213000FFF716F9300080210E
:1046D000FFF712F90120A3E74027CDE7AA4207D050
:1046E000074C3A002000FEF777FD80212200CBE73F
:1046F00080210022C8E7C046B81C0020A93700105E
:10470000001D00202C2343430B4810B5C0184478EB
:10471000FFF774F9002801D1002010BDFFF776F9EA
:104720000028F9D1002CF7D021000020FFF7CAFEA5
:1047300001235840C0B2F0E7CC1C0020F0B547463A
:10474000CE4680B583B06E460F001900002332704C
:1047500005000622737000292FD0B01CFEF73CFD27
:104760002C246C43174BA1469846C1444B4600206D
:104770005978FFF76DFE00280FD0002F12D10834B2
:104780004444230006CE06C308232C204543454459
:10479000220000206978FFF76FFE03B0C0BCB94665
:1047A000B046F0BD4B46083444441F720822310025
:1047B000601CFEF711FD0923E7E70021B01CFEF79E
:1047C00005FDCDE7CC1C002010B52C2200210248AD
:1047D000FEF7FCFC10BDC046CC1C002010B52C22FE
:1047E00000210248FEF7F2FC10BDC046CC1C0020A0
:1047F000F0B54B7906000D0083B0032B0AD1087980
:10480000C400241A1234A4B2944203D81A4F7B78FD
:10481000002B03D00024200003B0F0BD09786918F4
:104820004B78212BF6D1B9620B780200C9187B1C9A
:104830000193BB1C009330000323FFF7BBFD00284E
:10484000E8D0AB79012B13D001233B71AB78BA6A66
:104850003B70137AD1791B020B43B978FB80002996
:10486000D9D03A00102330001832FFF705FED2E706
:10487000EB79FB70E8E7C046CC1C00201F23F0B5A5
:1048800014001278050083B01340012B17D1614E3C
:1048900020793378984212D16023180010401342D7
:1048A00008D020280BD163780B2B08D85A4A9B00DC
:1048B000D3589F46012908D16378062B07D00020E2
:1048C00003B0F0BD721D012957D00120F8E7E3784D
:1048D000212B00D180E0222BF1D10020FCF7D6F86B
:1048E00021000200F3882800FFF712FE0120E7E70D
:1048F000012917D00329E8D1A178484B3171002B49
:10490000E3D0002000E000BF0120D9E70129DCD17D
:10491000E178434B7171002B04D0002000E000BF10
:104920000028CCD021002800FFF7DAFD0120C7E7DE
:1049300001295BD00329C8D1E079A379000218438B
:10494000E278A178041C102800D910243300A4B206
:104950001833002908D0012806D9307E884203D1B7
:104960003300013CA4B2193300200094FCF7AEF8E8
:104970000120A5E70129A8D1321D0123210028002B
:10498000FFF7C6FD01209BE701299ED1E379A079BD
:104990001B020343E278A178181C102B00D91020C9
:1049A00080B2002931D0012B2FD9330001270138E3
:1049B000317280B2093300900020FCF771F83F1883
:1049C000BBB2002B00D17AE7320021002800083268
:1049D000FFF79EFD012073E7B26A002A00D16EE75F
:1049E000210028001378FFF793FD69E7E379A279A6
:1049F0001B021343102B00D961E73200210028006D
:104A00001832FFF785FD01205AE7330000270833ED
:104A1000D1E7C046CC1C0020685A001000000000FE
:104A20000000000070B5164C0500A27882B08A42E2
:104A30000FD16178914211D1124A0125002A05D087
:104A4000210000209AB2083100E000BF280002B027
:104A500070BD627800258A42F8D1EDE726009BB24E
:104A6000183600220021002000933300FCF72EF8B6
:104A7000280010233200A178FFF7FEFC0500E5E7CF
:104A8000CC1C00200000000010B5FEF7DFFF10BDB9
:104A9000037870B5DB0704000E00DD0F002B17D183
:104AA00003785B0701D5280070BD01213000494221
:104AB00000F0E2FD2378DB07DD0F002B0AD123781D
:104AC0005B0708D40422237801251343237002E0F6
:104AD0000025E8E70025300000F09EFDE3E7C04632
:104AE00010B5437904791B0223435B055A0DC37843
:104AF0009B079B0F022B05D0032B15D00020012B09
:104B000008D010BD02291CD0002040239342404110
:104B1000C0B2F6E702394B4259410D4B9C46614405
:104B200091424041C0B2ECE702394B425941F02377
:104B3000002049429B001940403191424041C0B29F
:104B4000DFE7044BD3185A425341D8B2D9E7C046E5
:104B5000FF03000000FEFFFF8A1870B5914207D2E4
:104B60007F264C78052C04D00C7809198A42F8D895
:104B700070BD34008D782C4064000419ED09635534
:104B80000C7809198A42ECD8F2E7C04670B50400E7
:104B900000690E00002803D00121494200F06CFD9D
:104BA00025896089A288A9B283B285422CD3CD1A07
:104BB000ADB2002D2ED0AA4208D2914231D38B1A29
:104BC0009BB263819A4203D89B1A9BB29A42FBD94B
:104BD000E28821685204520C53433000C918FEF792
:104BE000FBFA618901254B1C9BB2A288994214D91A
:104BF000002352009B1A9BB220696381002801D0D8
:104C000000F00AFD280070BD5500ED1A4D19ADB237
:104C1000002DD0D1002563899BB252009342EBDB7B
:104C2000E8E789188BB26381CCE7C046F8B5040089
:104C3000C0680E00002803D00121494200F01CFD8D
:104C4000258920896189A288ADB283B28FB288425A
:104C500028D3DB1B9BB29A4209D8E779FF0906D11A
:104C6000E068002801D000F0D7FC3800F8BD2B0028
:104C7000954203D39B1A9BB29342FBD2E2882168F0
:104C80005204520C5343C8183100FEF7A5FAA2880B
:104C90006B1C9BB252009D4209D99B1A9BB2012703
:104CA0002381DDE75100C91B5B189BB2D3E7934218
:104CB000F5DBF2E710B50400C068002803D001213D
:104CC000494200F0D9FC2069002803D00121494263
:104CD00000F0D2FC0023E06863812381002801D02A
:104CE00000F09AFC2069002801D000F095FC01201A
:104CF00010BDC04610B51920FCF75CF9D023802206
:104D0000E1211B0692045A620448054B00221860F8
:104D100049020123FEF78AFC10BDC0460040034053
:104D20003024002070B59E25084C2D012800E56038
:104D3000FEF732FAA060002804D00023606005600E
:104D4000436070BDE0606060FBE7C046641C00200B
:104D50007047C0467047C04610B5034B0100186845
:104D600000F004F810BDC046F00E0020F0B54E462D
:104D70004546DE465746E0B50D000B35060083B0CC
:104D8000162D22D8102900D9B2E000F0B1FA102572
:104D900018230220CC4FFB181A005C68083A944292
:104DA00000D1B5E0032362689A431300E268A1686A
:104DB000CA6091600122E318596830000A435A60C2
:104DC00000F09EFA2000083095E007239D4300D5AF
:104DD0008EE0A94200D98BE000F08AFAFC235B0048
:104DE0009D4200D2A7E1680A00D18BE0042800D9D7
:104DF0007AE138239846A80980443930C100B24F7F
:104E000079184C680839A1420ED003239C4604E06F
:104E1000002ACBDAE468A14206D062466368934375
:104E20005A1B0F2AF4DD40463A003C69083294428E
:104E300000D178E003236168994389460B00491B40
:104E40000F2900DD7BE17A613A610029B2DA802224
:104E50009200914500D30FE15909DA0801238B40F4
:104E6000D2007968D2190B4391687B60E260A1603F
:104E70009460CC60012182109140994259D80B4234
:104E800005D103229043490004300B42FBD0032399
:104E90009846C3009946B944CC4682466346DC68CE
:104EA000A44507D12CE1002A00DB35E1E468A445E4
:104EB00000D125E14246636893435A1B0F2AF2DD75
:104EC00001208046611905436560A068E5680837E0
:104ED000C560A86040461043F960B9604860CF6083
:104EE00030008F60E25000F00BFA2000083002E042
:104EF0000C230020336003B0F0BCBB46B246A94689
:104F0000A046F0BD80213F2340209846890076E7E7
:104F1000DC680230A34200D044E73A003C69083222
:104F2000944200D086E701217B688210914099422B
:104F3000A5D90323BC6862689A439146954203D879
:104F4000531B0F2B00DD89E023004B445F4A019384
:104F50005F4B93461B681268EB18013200D13DE1AC
:104F60005C4A944663441B0B1B030093300000997A
:104F700000F0CEF903008046013300D1FAE0019B36
:104F8000834200D9F4E0544B00981A009A46126804
:104F900003009446514663440B6001991A00414551
:104FA00000D151E15B461B68013300D156E1434615
:104FB00001995B1A9A1853461A60072342464146E4
:104FC0001A400192194200D112E108239846881A2A
:104FD000424B0099804441449B1A5B1A1B051B0DF0
:104FE0000091300019009B4600F092F9431C00D15B
:104FF00050E14346C01A03005B44009353465246B7
:105000001B6801215B44136042464046BA60009A27
:105010000A434260BC4200D124E14A460F2A00D82C
:1050200022E107200C3A82436068014005201143C9
:105030006160A118486088600F2A00D935E14246B6
:105040004446526826490868984200D20B602549B8
:105050000868984200D38FE00B608DE001222900A0
:1050600013431143651961603000BD606B6000F04F
:1050700047F9200008303EE75A0A042A72D9142A58
:1050800000D9C5E011005C325B31D20008235B42DD
:105090009C46BA18944463469A68032398469445FC
:1050A00000D19EE0434651689943494502D9926830
:1050B0009445F7D1D3689C467B686146A260E16065
:1050C0008C60D460D6E6C04620130020281700204C
:1050D000A81C00200F100000781C00200810000001
:1050E000A01C0020A41C0020142852D9542800D948
:1050F00096E06E239846280B80446F30C1007EE610
:1051000008239B46073BDC449B46DA444346524611
:10511000134200D0C2E64CE00122E3185968300087
:105120000A435A60E368A268D3609A6000F0E8F826
:1051300020000830DFE62B00E80808332AE60123C8
:1051400060191D43656078613861C26082601A0031
:105150004B460A4342603000E15000F0D1F8200095
:105160000830C8E69A09110039323831D2008DE78B
:10517000BC4260D0BC68626803239A43531B9542CB
:1051800002D80F2B00DD69E7300000F0B9F80020ED
:10519000B1E65B23984680445C30C1002FE60823CB
:1051A0005B429C46E1444B469B6801384B4500D02E
:1051B00098E043460342F2D17B688B437B60490011
:1051C000994200D9B5E6002904D1B2E604229446FA
:1051D0004900E2440B42F9D050465AE6103300939E
:1051E000C4E68910023B8B4079680B437B6064E71F
:1051F000009B300043445B421B051B0D19009B467E
:1052000000F086F8431C00D0F3E600239B46F5E649
:10521000542A2BD81A0B11006F326E31D20035E7A9
:10522000AA235B0098422BD8DD3B9846E80B8044CC
:105230007830C100E3E52C4B009A9A461B689C46E7
:10524000534662441A60ADE6090500D0AAE60200A2
:10525000BC684A4401310A436260F3E65B46424659
:105260001A60AAE64446EDE641608DE7AA214900AE
:105270008A4224D8DA0B110078327731D20005E760
:105280001A4B984224D87C239846A80C80447D3041
:10529000C100B4E5009A019B94464246083B634432
:1052A0009B1A009300239B46A8E62100300008319A
:1052B00000F0BCF85346BC681B686268C2E60B4944
:1052C0008A420BD89A0C11007D327C31D200DDE687
:1052D000FE217E237F209846890090E5FE227E21D4
:1052E0009200D3E67B686AE7781C00205405000032
:1052F00010B50248FFF72CFD10BDC046741C0020FD
:1053000010B50248FFF726FD10BDC046741C0020F2
:10531000002370B5064D040008002B60FDF7ACFBC0
:10532000431C00D070BD2B68002BFBD02360F9E735
:10533000E81F002010B583070AD00300032102E014
:1053400001330B4205D01A78002AF9D1181A10BD82
:10535000030019680C4A0D4C8A188A4322420FD167
:105360005968094A04338A188A43224208D1596885
:10537000054A04338A188A432242F1D000E00133FF
:105380001A78002AFBD1E1E7FFFEFEFE80808080D4
:10539000F8B50C000500FFF7ABFF204FBB685E6857
:1053A00003239E431E4B341B9C466444240B013C48
:1053B000113324039C4207DB00212800FFF7A8FFDC
:1053C000BB689B19984204D02800FFF799FF002082
:1053D000F8BD28006142FFF79BFF431C0DD001225E
:1053E000BB68361B16435E600E4B28001A68141B00
:1053F0001C60FFF785FF0120EAE700212800FFF786
:1054000087FFBA68831A0F2BDEDD07490968401A47
:105410000449086001210B435360D5E720130020A5
:10542000EF0F0000781C002028170020F0B5C646BA
:1054300005000C0000B500294FD0FFF759FF2100EF
:1054400008394C68012622000320B2438F187B687C
:105450008343624898468368BB426AD043467B6078
:1054600026421ED108239C460C688444091B12194D
:105470008C6864454FD0CB68E3609C604346FC1861
:105480006468344211D1BB68554C4244A34200D1F8
:105490007EE0FC68DC60A360012313434B608A500C
:1054A00006E0FC1864683442EDD016434E603A6062
:1054B00080239B009A4213D25409D3080122A240B0
:1054C0004468DB002243426018188368C8608B6020
:1054D0008160D9602800FFF713FF80BCB846F0BD9B
:1054E000530A042B3ED89409260039343836E40098
:1054F00004192368083C03279C4242D05868B843EB
:10550000904202D99B689C42F8D1DC68CC608B60E9
:10551000A160D960DEE74346F8184068304257D1B1
:10552000FB68B86842441643C36098604E608A5076
:10553000D0E713004344264206D10A68891A8C68D2
:105540009B18CA68E260946001221A434A60254AA7
:10555000816012689A42BDD8234B28001968FFF772
:1055600017FFB7E7142B07D9542B1AD8140B2600B2
:105570006F346E36E400BBE71E005C335B36DC0044
:10558000B6E70122B610B240466832434260BDE73A
:10559000D9609960CB608B60012313434B608A50C4
:1055A00098E7AA246400A34205D8D40B26007834D7
:1055B0007736E4009CE70D4CA34205D8940C2600F6
:1055C0007D347C36E40093E7FE247E26A4008FE73A
:1055D000330013434B603A607CE7C0462013002041
:1055E000281300202C170020A81C002054050000C0
:1055F000F8B5C0460000000001B40248844601BC72
:10560000604700BFF909002001B40248844601BC8C
:10561000604700BFD102002001B40248844601BCAB
:10562000604700BF3102002001B40248844601BC3B
:10563000604700BFA10D002001B40248844601BCB0
:10564000604700BFD109002001B40248844601BC74
:10565000604700BF9503002001B40248844601BCA6
:10566000604700BFA10D002001B40248844601BC80
:10567000604700BFC100002001B40248844601BC5D
:10568000604700BFA101002001B40248844601BC6C
:10569000604700BF0501002001B40248844601BCF8
:1056A000604700BF750B002001B40248844601BC6E
:1056B000604700BF110B002001B40248844601BCC2
:0856C000604700BF1D0B002034
:1056C80009DA0AD907D808D70B5A0C580D810E20C9
:1056D80005010906A1018501050719E029E715005B
:1056E8002501950875018102950175088101050854
:1056F8001901290595057501910295017503910117
:10570800050719002AFF00150026FF0095067508F1
:105718008100C005010902A10185020901A1000556
:1057280009190129051500250195057501810295BD
:1057380001750381010501093009311581257F951E
:10574800027508810609381581257F95017508813C
:1057580006050C0A38021581257F95017508810612
:10576800C0C0000000000000000000002A2B280034
:105778000000000000000000000000000000000021
:10578800000000002C9EB4A0A1A2A434A6A7A5AE38
:10579800362D3738271E1F20212223242526B333F0
:1057A800B62EB7B89F8485868788898A8B8C8D8E1C
:1057B8008F909192939495969798999A9B9C9D2FE8
:1057C8003130A3AD350405060708090A0B0C0D0E88
:1057D8000F101112131415161718191A1B1C1DAFC8
:1057E800B1B0B50000000000000000007105001015
:1057F8005D06001041040010450400100000000080
:10580800000000009108001047656E65726963002A
:105818004D3820547261636B6572204B6579626FF5
:1058280061726400303132333435363738394142A9
:1058380043444546000000001201000200000040F9
:105848009A23FECA000101020301000009020900AF
:10585800000100A0320000004E6F207370696E6C6A
:105868006F636B732061726520617661696C616238
:105878006C6500004E6F2075736572204952517334
:105888002061726520617661696C61626C650000F7
:10589800486172647761726520616C61726D202560
:1058A8006420616C726561647920636C61696D65FF
:1058B800640000000A2A2A2A2050414E4943202A1F
:1058C8002A2A0A000A000000486172642061737382
:1058D800657274004F7574206F66206D656D6F7208
:1058E8007900000052656C6561736500626F6F74C2
:1058F800325F77323571303830000000312E352E66
:10590800310000007069636F000000007069636F08
:105918002D6D382D6B6579626F617264000000002F
:105928004A756E2031382032303234000600525029
:10593800BBFF3CB60C59001006005250E182887F2C
:10594800F458001006005250D3F07542EC5800107D
:105958000D0A0000556E68616E646C6564204952DA
:105968005120307825780A00657020256420257339
:105978002077617320616C7265616479206176615A
:10598800696C61626C65000043616E277420636F07
:105998006E74696E75652078666572206F6E206911
:1059A8006E616374697665206570202564202573AF
:1059B800000000006F757400696E0000663B0010FF
:1059C8000E3D0010AA3C0010663B00108C3C0010F5
:1059D800743C00100A3C0010B43B0010A83B0010B7
:1059E8004A40001030400010623C00105E40001039
:1059F800623C00101840001004400010623C001087
:105A0800F03F0010C63F0010623C0010E24000105A
:105A1800C6400010BA400010623C0010623C001002
:105A28009C400010C6400010623C0010623C001010
:105A3800623C0010623C0010623C0010623C0010A6
:105A4800623C001078400010C9470010DD47001084
:105A5800F14700107D480010254A001000000000A2
:105A6800BE48001088490010C4480010744900104E
:105A7800BE480010BE480010BE480010BE480010C6
:105A8800BE480010304900100C490010F0480010C2
:105A98004C4544000900525000000002985A00107A
:085AA80008005250120000003A
:085AB00074F2FF7F0100000009
:105AB800AC020010A002001094020010345900102B
:105AC80088020010405900104C5900109C5A0010D0
